:100000000C9434000C9446000C9446000C9446006A
:100010000C9446000C9446000C9446000C94460048
:100020000C9446000C9446000C9446000C94460038
:100030000C9446000C9446000C9446000C94460028
:100040000C9446000C9446000C9446000C94460018
:100050000C9446000C9446000C9446000C94460008
:100060000C9446000C94460011241FBECFEFD8E03C
:10007000DEBFCDBF21E0A0E0B1E001C01D92A630FF
:10008000B207E1F70E946A010C9474010C9400001D
:1000900084B1877E84B985B1886185B93898409AE2
:1000A00008958AB1846D8AB98BB18B728BB908952A
:1000B0008AB188628AB98BB188628BB908958BB195
:1000C0008B728BB98BB184648BB908958BB18B72B1
:1000D0008BB98BB180698BB908958BB18B7A8BB951
:1000E0005E9A08958BB18F728BB95A9A08958BB12D
:1000F0008B728BB9089518BC1092B40084B58F7EB2
:10010000806284BDE0EBF0E080818F7E806280833E
:1001100084B5836084BD85B5877F85BD808183601C
:100120008083E1EBF0E08081877F808385B58B7FE2
:10013000836085BD80818C7F84608083089523B136
:1001400023FB222720F92093050193B1929591700A
:100150009093040186B18170809303012093020182
:1001600090930101809300010895C4EBD0E004E670
:1001700018EC0E945F000E949F008091020188237A
:10018000D1F08091010181114BC080910001882341
:1001900009F446C00E945F00188318BD2FEF81EE5E
:1001A00094E0215080409040E1F700C00000809131
:1001B0000201811135C0809101018823D1F0809125
:1001C0000001882309F441C00E946D00188218BD07
:1001D0002FEF80E792E0215080409040E1F700C08F
:1001E00000008091020181111BC0809101018111E9
:1001F0002CC080910001882309F467C00E946D0023
:10020000188218BD2FEF80E792E021508040904087
:10021000E1F700C0000080910201882309F44AC080
:10022000809101018823C9F08091000181112AC0C9
:100230000E947200188318BC2FEF80E792E02150D3
:1002400080409040E1F700C00000809102018823C7
:1002500089F18091010181111AC080910001811101
:1002600088CF0E947200188318BC2FEF80E792E0BD
:10027000215080409040E1F700C0000080910201D1
:100280008823C1F080910101882309F472CF809105
:100290000001882309F46DCF0E946600088308BD21
:1002A0008FE19EE40197F1F700C000008091020108
:1002B00081115FCF8091010181115BCF809100019D
:1002C000811157CF0E94770054CF8091020188237B
:1002D00069F3C3CF0E9448000E9451000E94580059
:0C02E0000E947B000E94B500F894FFCF44
:00000001FF
