:100000000C9434000C9446000C9446000C9446006A
:100010000C9446000C9446000C9446000C94460048
:100020000C9446000C9446000C9446000C94460038
:100030000C9446000C9446000C9446000C94460028
:100040000C9446000C9446000C9446000C94460018
:100050000C9446000C9446000C9446000C94460008
:100060000C9446000C94460011241FBECFEFD8E03C
:10007000DEBFCDBF21E0A0E0B1E001C01D92A630FF
:10008000B207E1F70E9469010C9473010C9400001F
:1000900084B1877E84B985B1886185B93898409AE2
:1000A00008958AB1846D8AB98BB18B728BB908952A
:1000B0008AB188628AB98BB188628BB908958BB195
:1000C0008B728BB98BB184648BB908958BB18B72B1
:1000D0008BB98BB180698BB908958BB18B7A8BB951
:1000E0005E9A08958BB18F728BB95A9A08958BB12D
:1000F0008B728BB9089518BC1092B40084B58F7EB2
:10010000806284BDE0EBF0E080818F7E806280833E
:1001100084B5836084BD85B5877F85BD808183601C
:100120008083E1EBF0E08081877F808385B58B7FE2
:10013000836085BD80818C7F84608083089523B136
:1001400023FB222720F92093050193B1929591700A
:100150009093040186B18170809303012093020182
:1001600090930101809300010895C4EBD0E004E670
:1001700018EC0E945F000E949F0080910201811193
:100180001AC080910101882309F447C080910001C1
:10019000811143C00E945F00188318BD2FEF81EECC
:1001A00094E0215080409040E1F700C00000809131
:1001B0000201882391F180910101811119C0809180
:1001C000000181113FC00E946D00188218BD2FEF01
:1001D00080E792E0215080409040E1F700C00000AD
:1001E000809102018823C9F080910101882351F197
:1001F00080910001811168C00E946D00188218BDB5
:100200002FEF80E792E0215080409040E1F700C05E
:1002100000008091020181114AC080910101811189
:1002200019C080910001882359F10E94720018833F
:1002300018BC2FEF80E792E0215080409040E1F71A
:1002400000C0000080910201811131C08091010144
:100250008823D1F080910001882309F48ACF0E947D
:100260007200188318BC2FEF80E792E02150804085
:100270009040E1F700C0000080910201811117C099
:1002800080910101811175CF80910001811171CFA1
:100290000E946600088308BD8FE19EE40197F1F794
:1002A00000C0000080910201882309F462CF809190
:1002B0000101882309F45DCF80910001882309F4AE
:1002C00058CF0E94770055CF809102018111EACF6B
:1002D000C1CF0E9448000E9451000E9458000E9415
:0A02E0007B000E94B500F894FFCFE8
:00000001FF
